:020000040020DA
:10000000683A0020C111200083E9200081E9200026
:1000100081E9200081E9200081E920000000000042
:1000200000000000000000000000000025FB200090
:1000300081E920000000000043FB200021EA2000AD
:1000400033EA200039EA20003FEA200045EA200098
:100050000000000027EA20002DEA200081E92000AE
:1000600081E9200000000000000000000000000006
:10007000000000000000000081E9200000000000F6
:10008000000000000000000081E9200081E920005C
:1000900081E9200081E9200081E9200081E9200038
:1000A00081E9200081E9200081E9200081E9200028
:1000B00081E9200081E9200081E9200081E9200018
:1000C00081E9200081E9200081E9200081E9200008
:1000D00081E9200000000000000000000000000096
:1000E0000000000000000000000000000000000010
:1000F0000000000000000000CD282000DD282000C6
:1001000000000000000000000000000000000000EF
:1001100000000000000000000000000000000000DF
:1001200000000000000000000000000000000000CF
:1001300000000000000000000000000000000000BF
:1001400000000000000000000000000000000000AF
:10015000000000000000000000000000000000009F
:10016000000000000000000000000000000000008F
:10017000000000000000000000000000000000007F
:10018000000000000000000000000000000000006F
:10019000000000000000000000000000000000005F
:1001A000000000000000000000000000000000004F
:1001B000000000000000000000000000000000003F
:1001C000000000000000000000000000000000002F
:1001D000000000000000000000000000000000001F
:1001E000000000000000000000000000000000000F
:1001F00000000000000000000000000000000000FF
:1002000000000000000000000000000000000000EE
:1002100000000000000000000000000000000000DE
:1002200000000000000000000000000000000000CE
:1002300000000000000000000000000000000000BE
:1002400000000000000000000000000000000000AE
:10025000000000000000000000000000000000009E
:10026000000000000000000000000000000000008E
:1002700081E92000B1272000D5272000491E200059
:100280003D2A20003519200081E9200000000000EF
:100290002DE9F04F0F469FB083460B46002000210A
:1002A000CDE904010392002219971A921C4613F813
:1002B000016B2D2E00F2F080DFE816F02E00EE002C
:1002C000EE00EE00EE00EE00EE00EE00EE00DD00CF
:1002D000DD00DD00DD00DD00EE00EE00EE00EE00F2
:1002E000EE00EE00EE00EE00EE00EE00EE00EE009E
:1002F000EE00EE00EE00EE00EE00EE00DD00EE009F
:10030000EE00EE00EE00EE00EE00EE00EE00EE007D
:10031000EE004400EE00DA00039B4FF000084FF0BF
:10032000000953B100230693039B1F60069B23B172
:10033000414609F1004388469946404649461FB068
:10034000BDE8F08F00230693631C19936678002E96
:10035000E2D0302E1C4600F0A480002308940A93BB
:10036000A6F130034FF0000A092B554623465446A8
:1003700019D8082CC8BF0AEB8A0A05EB850203F1DD
:10038000010306EB42021993C4BF06EB4A06A6F12D
:10039000300A1E78D8BFA2F13005A6F13002092A32
:1003A00004F10104E5D9584607930BF07BFCD0F823
:1003B000008058460BF076FC00680AF0C1F8079BF5
:1003C0000246414618460AF0E9F88046002800F047
:1003D000E480002084468646A146652E73D0452ED3
:1003E00071D00023B9F1000F47D0B9F1100FC84602
:1003F000CCEB03032846A8BF4FF0100807930DF07D
:1004000017FF002C08BF4C46B8F1090FCDE90401D5
:1004100013DD764B03EBC80353E912230DF07EFF87
:10042000064650460F460DF003FF02460B46304687
:1004300039460DF0C1FDCDE90401B9F10F0F00F30C
:10044000D780079B002B00F0A580079B40F36785B2
:10045000162B00F3D284DDE904230798634901EBEE
:10046000C001D1E900010DF059FF804689460DE039
:100470000123069368E7199318E718B90A9B002B24
:1004800000F0A1824FF000084FF00009039B002B01
:100490003FF44CAF199F47E70023302E06937FF4BB
:1004A0005CAF6378582B00F0A483782B00F0A18315
:1004B000013419942678302EFAD0002EE2D0012390
:1004C00008940A934CE7B9F1000F4ED0199F7B1C9A
:1004D00019937E782B2E00F06D822D2E00F0648211
:1004E0004FF00008A6F13003092B324600F20282D9
:1004F000302E06D1199B013319931E78302EFAD075
:100500003246313A082A3FF66CAF199B19460A4623
:10051000013219920793A6F130034E78A6F130010B
:1005200009290BD80132199203EB830306EB43032D
:100530001678303BA6F130010929F3D90799521AF0
:10054000082A00F3518444F61F629342A8BF134661
:10055000C8F1000253404344B9F1000F7FF445AFA6
:100560008BE74FF0000C4FF0010E002840F028827E
:100570000A9B002B3FF4D0AE8146A7E76FF0004303
:1005800005934FF0FF3304932B0742BF059B43F0C5
:1005900000430593DDE9048978E758460BF082FBB8
:1005A000006809F0CDFF199B1A1819921E5C002CE7
:1005B00040F0E881302E204605D10132199216789C
:1005C0000130302EF9D0A6F13103082B00F2A082C1
:1005D000199B303E089300F1010C4FF0010905EB27
:1005E000850506EB45050020DAE100BFD0002100BB
:1005F000079BC8EB09089844B8F1000F40F39A83B1
:1006000018F00F000AD0DDE90423C14901EBC00155
:10061000D1E900010DF082FECDE9040138F00F06AA
:1006200040F0288200230A930095089922464B4601
:1006300058460CF0BDFE1090002800F03B83079A4E
:100640000021002AC2F10003A8BF0B460F460C93FD
:1006500022EAE27307910B93109C584661680CF0F4
:1006600033FE8246002800F0A582DDE904232146FE
:100670009046994622690C31023292000C30CDE945
:10068000088909F0A9FD1BA81CA98DE803004246B2
:100690004B4658460DF098F91A90002800F08B82CE
:1006A000584601210CF01EFF0746002800F0828208
:1006B0001B9A002AC0F212810C9B0B9903EB0208D3
:1006C0000A981C9B121A1A446FF47F708242C3F17D
:1006D000360380F2EC80801A1F28A3EB000300F39E
:1006E0000281012500228540119208EB0309C145D2
:1006F0004A46A8BF4246CE180A9B1E44B242134641
:10070000A8BF3346002B04DDC3EB0909F61AC3EB7F
:1007100008080C9BB3B1394658461A460CF08CFFBA
:100720000746002800F04682584639461A9A0CF0CF
:10073000E3FE0446002800F03D8258461A990CF06A
:10074000EBFD1A94B9F1000F08DD4A4658461A9994
:100750000CF0C2FF1A90002800F02D820B9B43B1D1
:10076000514658460B9A0CF067FF8246002800F06D
:100770002182002E08DD5146324658460CF0ACFF6F
:100780008246002800F01682B8F1000F08DD3946D5
:10079000424658460CF0A0FF0746002800F00A82A7
:1007A00058461A9952460DF013F80790002800F0A9
:1007B0000182079A0026D3683946D6600D930CF063
:1007C000E3FFB042C0F2208400F0DD830798394691
:1007D0000DF04EF900224FF0804304460D460EF016
:1007E00019F8002867D00D9B002B00F0A280B146BD
:1007F000484DDDF814C0DFF81C810024464E474BFD
:100800000CEA06069E4200F027820A9B23B3B6F14B
:10081000D46F21D83CA3D3E90023484641460DF0CC
:10082000F9FFB0B1484641460EF03AF8814600283B
:1008300000F026830DF0FCFC814688460D9B002BC2
:1008400040F0198308F10043CDF850901593DDE98D
:10085000144505F1D6639D1BDDE908010DF02AF86A
:1008600002460B46204629460DF058FD02460B462F
:10087000DDE908010DF0A0FB0C46CDE904010A9B5F
:1008800023B9254B23409E4200F01F8258461A99F7
:100890000CF042FD584651460CF03EFD5846394694
:1008A0000CF03AFD584607990CF036FDD4E60022CC
:1008B0001192012519E71A4B2046294600220DF016
:1008C0002DFD0D9B8146884673BB01F100430E90C0
:1008D0000F93DDE90E45DDF814C08FE70B9BDDF8C3
:1008E0003080991AECE60F480125801A05FA00F2CB
:1008F0001192FAE619970023B9F1000F7FF475AD54
:10090000BBE500BFAFF300800000C0FFFFFFDF4189
:10091000D00021000000F03F0000F07F0000E07FE9
:100920000000E03FE3FBFFFF02460B46CDE90E234C
:10093000CFE7049BDDE90401002B40F0DE80C1F32A
:1009400013038C46002B40F0DC8011912046294691
:100950000022B54B0DF054FFDDF844C0002840F0F4
:100960009883B24B2046294600220DF0D7FC8146E1
:10097000884601F10043DDF844C016901793DDE985
:1009800016453BE74046A146C446A6F13002092A77
:1009900013D8431C1646002A40F04D821846199B76
:1009A0005A1C19925E78F0E74FF00108BB1C1993AE
:1009B000BE7897E54FF00008F8E74FF0010E0CE520
:1009C0004FF0000982E5BEF1000F7FF4A5AC493E6F
:1009D000252E3FF6A1AC01A353F826F05B0B2000B7
:1009E0001903200019032000190320001903200017
:1009F000230B2000190320001903200019032000F5
:100A000019032000190320001903200019032000F6
:100A100019032000190320001903200019032000E6
:100A200019032000190320001903200019032000D6
:100A300019032000190320001903200019032000C6
:100A400019032000190320001903200019032000B6
:100A50001903200019032000190320005B0B20005C
:100A60001903200019032000190320001903200096
:100A7000230B2000B6F59A7F00F31C813611012E5E
:100A8000DFF8D08140F32383DDE9040147464FF0CE
:100A9000000A16F0010F0AF1010A4FEA660603D0B8
:100AA000D7E900230DF03AFC012E07F10807F0D139
:100AB000CDE90401059B08EBCA08A3F15473059323
:100AC000DDE90423D8E900010DF028FC21F0004302
:100AD0001B0D574A1B059342CDE9040100F2EA8041
:100AE000A2F58012934240F2CF82524B059300232D
:100AF0000A934FF0FF33049396E5012800F0C38179
:100B00008C4600244C4D4FF00009DFF81C8175E63F
:100B1000652E3FF426AD4FF00009CC464FF0010E94
:100B20005DE41999454809E011F8013FA3F141043A
:100B3000192C98BF203393427FF4EEAB10F8012BB1
:100B4000002AF1D14B1C19934B78282B00F0FD8221
:100B50003B4B0593002304931CE5199A394809E09F
:100B600012F8013FA3F14104192C98BF20338B42A6
:100B70007FF4D2AB10F8011B0029F1D11992154670
:100B8000314809E012F8013FA3F14104192C98BF44
:100B900020338B4240F0988210F8011B0029F1D1DC
:100BA00001321992294B059300230493F2E4013199
:100BB00040F0B8821A98254B002205932223049214
:100BC000CBF80030DDE90489014658460CF0A4FB5F
:100BD000584651460CF0A0FB584639460CF09CFB99
:100BE000584610990CF098FB584607990CF094FB66
:100BF0004CE4069A1AAB01920093584619A9144A7C
:100C00001BAB0CF015F810F0070605463FF43AACA4
:100C1000062E40F047810134002319944FF000085C
:100C20004FF00009069331E40000F03F0000E03F80
:100C30000000A07CFFFFEF7F0000F0BF1C0521003B
:100C40000000F8FF10052100140521000000F07FCE
:100C50002005210098012100ACF154730593DDE9D2
:100C60000423104619460CF025FE02460B4620468A
:100C700029460DF053FB02460B46DDE904010DF059
:100C80009BF921F000431B0DB34A1B059342CDE9AC
:100C90000401DDE90801CDE9120140F2A980AF4B62
:100CA000139A9A4200F0EB81AC4B05934FF0FF335F
:100CB0000493EBE5AA4B0022059304922223DDE97D
:100CC0000489CBF80030FFF7E1BB414648460DF000
:100CD000BFFD0DF0BDFA0B460246414648460DF0F9
:100CE00069F90D9B8046894683B9049B73B9C4F3A7
:100CF00013045CB992A3D3E900230DF081FD002811
:100D00003FF4C4ADDDE904891A985DE78EA3D3E909
:100D10000023404649460DF073FD0028F2D18CA314
:100D2000D3E90023404649460DF088FD00283FF4F2
:100D3000ADADE7E73FF476ACC8F1000717F00F025E
:100D40000AD0DDE90401874B03EBC203D3E900239A
:100D50000DF00EFCCDE904013F113FF463AC1F2FF1
:100D600039DC17F0100300F0E7816A23002FD8BFA9
:100D70000A9314DDDDE904017B4E0A9317F0010F9D
:100D80004FEA670703D0D6E900230DF0C7FA002F1A
:100D900006F10806F2DC0A9BCDE9040193B1DDE916
:100DA0000401C1F30A53C3F16B03002B0ADD1F2BAF
:100DB00040F3E8810022342B049240F3EB814FF0A2
:100DC0005C730593DDE90401002200230DF00EFDA4
:100DD00000283FF429AC2223CBF800304FF0000864
:100DE0004FF00009FFF752BB44F61F63FFF7B0BB9B
:100DF000059B03F15474059441E5079AC9F1250355
:100E00009A423FF7F5ABDDE90423564CC9F10F09CF
:100E100004EBC901D1E900010DF080FA079BC9EB91
:100E2000030904EBC904D4E900230DF077FA8046E6
:100E30008946FFF72BBB012B9C4414D0484402E0A9
:100E40005D00814510D009F1010909F1FF33082B3C
:100E500005EB8503F4DDB9F1100FDCBF0AEB8A0A5C
:100E60004FEA4A0AEDE74846082800F101097FDC0D
:100E7000199BFFF7B4BB4A464346CDE91423E6E489
:100E8000DFF8E880DAE4DDE904239C46002B7FF4F8
:100E900038AE2223CBF800301A984FF000084FF0FC
:100EA000000991E61A9A3AB11CA835210CF00CFE03
:100EB00058461A990CF030FA1B9B062E3FF664AB8D
:100EC00001A252F826F000BF150F2000FD0E2000F1
:100ED000F10E2000E50E20007D052000FD0E200013
:100EE000150F20001E4B059300230493FFF74CBB06
:100EF0001C9B04931D9B0593FFF746BB1D9A1C99F1
:100F000003F2334322F4801242EA0353049105931F
:100F1000FFF73ABB002305930493FFF735BB163365
:100F2000FFF666ABDDE90401079A0E4BA3EBC203A3
:100F3000D3E900230DF01CFB80468946FFF7A6BAD3
:100F40009535A094FFFFCF3F9535A094FFFFDF3F7D
:100F500035E5AF350000E03FFFFF9F7CFFFFEF7FEF
:100F60000000F07FD0002100A80021000000F03F29
:100F7000B9F1100FD7BF0AEB8A0A199B199B02EB34
:100F80004A0A00200CE50D9EAE46DDE90889002ED8
:100F900000F08880DDE90445824BC5F313019942D6
:100FA0002A4600F0A980119B002B00F08880059A4A
:100FB00013420DD0DDE904010A9A002E00F08A8068
:100FC0000BF070FA42464B460CF0F6FF804689461D
:100FD0000A9BBBB1744B4046139300231293DDE987
:100FE000122349460DF09AF902460B46804689467F
:100FF000CDE9042331B9049B23B922231A98CBF8F5
:101000000030E1E51A98DFE50D9EDDE90889002E44
:10101000DED1049B002BDBD1DDE90401C1F3130316
:101020000C46002BD4D1059B23F000431B0D1B0560
:10103000B3F1D66FCCD9079A536913B91369012B51
:10104000C6DD0799012258460CF046FB3946079049
:101050000CF09AFB0028BBDD0A9B002B40F0878038
:10106000524B2340A3F580136FEA13536FEA0353E7
:1010700005934FF0FF330493DDE90489A8E7129B41
:1010800001337FF411AE95E501F154730593FFF739
:10109000C9BA474B0022CDE91623DDF83490DFF8BA
:1010A0001C816CE4DDE90401C1F313030C46002B41
:1010B0007FF479AF049B002B7FF475AFCCE7049AE3
:1010C0001EEA020F84D075E76B1C19936AE54FF096
:1010D000000AEFE40BF0E6F902460B4640464946AB
:1010E0000CF068FF00220023804689460DF07EFB4D
:1010F00000287FF4CEAE6BE70A9B049913B32B4B09
:101100002B40B3F1D46F1DD81B0DC3F16B034FF00F
:10111000FF3000FA03F399427FF445AF254B9A4222
:101120003FF445AD214B134003F580130593002395
:101130000493DDE904894BE7002FD8BF0A933FF7FA
:1011400019AE3FE64FF0FF33E5E719A81A491CAA8C
:101150000BF0F8FF05287FF4FBAC1D9B43F0FF4329
:1011600043F4E00305931C9B0493FFF713BA0F4B62
:101170002340B3F1D66F3FF775AFB3F15C7F3FF714
:1011800029AF86E64FF0FF3202FA03F3049A1A40C1
:10119000049217E6203B4FF0FF3202FA03F30B40B4
:1011A00005930FE6FFFF0F00000050390000F07FAD
:1011B0000000E0BFFFFFEF7FFC0421000000E03FE4
:1011C00008B5094BFF221A600848094A4824E36918
:1011D0000849121A98470848084AA3690021121AB8
:1011E000984700F03FF8FEE7B4200D404000002093
:1011F000C10A002080092100C80A002063320020B3
:1012000008B500F021F8024B00221A7008BD00BF9B
:10121000221E0020024A13781843107000F01CB8F8
:10122000221E0020034A137823EA0000107000F009
:1012300013B800BF221E0020024A137858401070D5
:1012400000F00AB8221E0020024A136843F00F0380
:101250001360704700B40D40014B1860704700BF29
:101260003CB00D40F7B500F0C5FC00F07FFD00F08C
:10127000DBFC00F0BFFA01F0CFFB0DF09CFC00F0AE
:101280006DFDFFF7BDFF02200DF07EFB02F0E8F9D7
:1012900000F09CFC00F0F4F9002000F0A5FB012018
:1012A00000F0A2FB0020464900F07AFC02F00AFBA5
:1012B00062B604200DF068FB42480DF0E7FB42489F
:1012C0000DF0E4FB00F038FA404801F005FC404B1B
:1012D000404C18680DF0DAFB3F4801F0FDFB3F4B36
:1012E000002518680DF0D2FB3D4801F0F5FB3D4BA1
:1012F00018680DF0CBFB002002F006FB01F07EFA2F
:101300003948002102F038FA01F0DCFF6846082174
:1013100001F0A8FB9DF807309DF8067043EA072707
:101320006B4603CB20606160304801F0D5FB615D06
:101330002F48013501F0D0FB072D264EF7D12D4D5A
:10134000F1792D4801F0C8FBEC6A4AF6CD31022054
:10135000A04739460320A04719210120A04769462C
:101360006B6B08220B20984700F092FD00F0AEFD59
:1013700007F024FE214A336813607368536007F056
:1013800037FB1F48002102F0F7F900F011FD0021A2
:101390001C4802F0F1F90DF0DDFB1B480DF0D0FB0D
:1013A00000F01AFC08200DF0EFFA00F01BFC02F030
:1013B0006FF910F0FF0FF8D101F0C6FAF5E700BFA2
:1013C00081382000400621005A06210072062100C3
:1013D000500321005B320020790621005C032100CC
:1013E0008006210084032100C40400208706210018
:1013F000A5062100F8022100AB06210038280020B4
:101400006005002068040020B403210070B5058841
:101410000446772D30D07E2D3FD0002D4DD102F0E7
:1014200017F9294B1870294B1D601D462B68284A57
:10143000264E52F823204AB126480021C154936811
:1014400080209847336801333360EFE7224A1370F6
:10145000772320E01F4AD256002A12DB1B4A13686A
:1014600001331360194B1C4A1B6812789342F1DB5D
:101470001A4B1B68002BEBD0184A00231360134A49
:10148000EFE7114A00201178114A52F8232002F0A8
:101490004BF930B97E23238013E00B4B1B788B4232
:1014A0000FD10A4B0B491A688B5C03F07F038B54F6
:1014B0000A4A136801331360D0E700230380032036
:1014C00070BD012070BD00BF4E320020DC0A00203C
:1014D000780400204F320020231E0020D80A00206C
:1014E000094B1A780023934204DA084951F8231073
:1014F000814207D106490748CA5C62F07F02CA549C
:1015000002F052B90133EEE7231E002078040020D8
:101510004F3200206804002008B5094840210DF032
:101520005DFA02200621042200F02EFC054B042265
:101530001A6005480221062200F0C8FB012008BD00
:1015400000B00D4000E100E04D15200038B5054623
:1015500011480C460DF043FBE8B10F4810210DF087
:101560002CFB1DB9032C16D10C4810E0022D12D112
:10157000042C01D10A480AE0052C01D1094806E0F3
:10158000062C01D1084802E0072C04D10748BDE829
:101590003840FFF7A5BF38BDE00A0020C001210098
:1015A000E0012100F0012100D00121000002210012
:1015B00008B5094880210DF011FA02200721042204
:1015C00000F0E2FB054B04221A60054802210722C5
:1015D00000F07CFB012008BD00B00D4000E100E000
:1015E0004D15200010B5094808210DF0F7F900202D
:1015F0000321042200F0C8FB054B01241C600548B0
:101600000021032200F062FB204610BD00900D4037
:1016100000E100E04D15200008B5094810210DF04B
:10162000DDF904210A46022000F0AEFB054B04223E
:101630001A600548022100F049FB012008BD00BFE7
:1016400000B00D4000E100E04D15200008B509484C
:1016500020210DF0C3F902200521042200F094FBA3
:10166000054B04221A6005480221052200F02EFBDA
:10167000012008BD00B00D4000E100E04D15200044
:10168000014800210DF099BAE00A002010B5074C7E
:10169000FF2323604FF4FA6000F0E6F800213022C7
:1016A000062000F08DFB0023236010BD00920D404A
:1016B000802870B51ED1104E104D3368002423F0E1
:1016C000800333602B68204643F080032B600C4B73
:1016D00007211C60224600F057FB3368204623F0A8
:1016E000400333602B68062123F040032B60012266
:1016F00000F04AFB002070BD20940D4000940D4086
:1017000000920D40044B1868C0F30720030904BF82
:101710001030C0B2704700BF1C300D40054B186838
:10172000C0F3C21001289ABFC0F1020040034FF479
:101730000040704714300D402DE9F04788B0FFF7A6
:10174000E1FF174B48251C68AB68074698476B6854
:10175000804698470646FFF7E1FF054600F09EFAEF
:10176000824600F0A7FA814600F054FAB60AC4F3A4
:101770004003AD0A04F0010402930690009601951F
:101780000394CDF810A0CDF814904146C7F307128A
:1017900007F00F03034801F09FF908B0BDE8F08798
:1017A0001C300D40C4062100F8B500F081F80F4B45
:1017B0000024D3E900673A46B04238BF7A1C154688
:1017C0000443C3E90045DFF828E0DEE90001821B9D
:1017D00061EB070312196B41CEE9002301F0A2FE71
:1017E00018B1BDE8F84001F02DBEF8BDC80A0020D0
:1017F000D00A00200D4B0E4AE0215A600D4A82F8B3
:101800002310002207219A6019600B490B6843F0EE
:1018100001030B60094B1A60042243F80C2C0122CF
:1018200043F8082C0F22DA62704700BF10E000E096
:1018300047E8010000ED00E008200D400C000340E7
:10184000034BD3E90023100A40EA0360704700BF4E
:10185000C80A0020034BD3E90023D00B40EA4340E1
:10186000704700BFD00A0020054B18601C3B1A6867
:1018700042F001021A601A68D207FCD4704700BF18
:101880002800034010B5064C236823F001032360B1
:10189000FFF78AFF236843F00103236010BD00BFF8
:1018A00010E000E0014B1868704700BFE80A002014
:1018B000074B084A196804331B681268120442EA8D
:1018C0000323054A0B43106843EA0060704700BFDA
:1018D00040500D4048500D404C500D4010B504464E
:1018E000104B1B68DB07FBD572B6FFF7E1FF231A2D
:1018F000062BD8BFC41D0C4B220E1A60C4F307423E
:1019000043F8042CC4F3072243F8082CE2B243F84E
:101910000C2C62B6054B4FF400321C60044B1A616C
:1019200010BD00BF50500D404C500D40E80A002043
:1019300000E100E008B500F0EDFF074B00221A605F
:10194000064B4FF40032C3F89021C3F89020BDE855
:10195000084001F035BF00BFE80A002000E100E0C8
:10196000064B1B681B075FBF054B186880F008001B
:10197000C0F3C00048BF0020704700BF18C000403F
:1019800018D00040164A38B52C2303FB00234FF62D
:10199000BF72DC680546236C62649BB213F0500290
:1019A0000DD0A369DB0609D40E4B53F825301BB1CB
:1019B0002068C0B29847F4E72368F2E738BD13F413
:1019C000D06F0BD04FF440732363FF236360E36A4F
:1019D000E262E362236B43F00103236338BD00BF7F
:1019E00020022100EC0A00202DE9F04F012885B0EB
:1019F000064600F2C3802C244443624B1D1995F91E
:101A000020A005F12007BAF1000F9946C0F2B68078
:101A100095F92230002BC0F2B1805B4800F0ECFF5A
:101A20005A4A59F804301168EC680B431360516846
:101A30006B6895F921B00B4353609168AB6895F8DA
:101A400022800B4393600023C4F8C83F2B690BEB43
:101A5000CA021A6095F823305FFA88FC01939DF85A
:101A60000430604619462A7DCDF80CC0029300F080
:101A700095F9029BDDF80CC019466046082200F07B
:101A800083F94FFA88F842494FEA08389DF9042053
:101A900058F80100012303FA02F2024348F801203A
:101AA0004FEA0A3A5AF8010003FA0BF202434AF8E5
:101AB00001205022A263A26B95F8240042F4D06268
:101AC000A263022262634FF440722263AA696262D7
:101AD000EA69A2627022E26242B2002A0C4614DB7A
:101AE00095F925102B4D41EAC2012960797912033D
:101AF00015594FB2BB402B431351002200F044F95B
:101B0000254A136843F4004313602C2303FB069318
:101B100093F8265020336FB2002F1CDB93F807A0F8
:101B2000EDB25FFA8AF82846414601223F0300F0F1
:101B300035F94FFA8AFA3A59012303FA0AF31343A3
:101B40003B5108222846414600F01EF9124A13680C
:101B500043F4804313602C2303FB0696F268136B57
:101B600043F00103136396F828300122590903F06A
:101B70001F0302FA03F3094A42F8213005B0BDE819
:101B8000F08F00BF200221006119200028200D40A5
:101B900020940D4004410D4030D0004000E100E0B1
:101BA00001289CBF014B43F820107047EC0A00202D
:101BB000012808D8044B2C2202FB0030C3689A6924
:101BC0009206FCD41960704720022100014B0022CC
:101BD0001A60704700500D40014B08221A60704790
:101BE00000500D40024BA0221A6050221A6070472C
:101BF00000500D40014B024A9A60704700ED00E032
:101C000000002000024B1868C0F38150704700BFED
:101C100004200D4008B5FFF7F5FF024B53F82000F4
:101C200008BD00BF7802210038B5164D164C2B6850
:101C3000032023F040032B602368062123F0400398
:101C40002360012200F0A0F82B68012223F080031A
:101C50002B602368032023F080032360072100F01A
:101C600093F80A4A0A4B1A600A4B0B4A19680A4051
:101C7000002AF9D11A685101FCD41A685201FCD526
:101C800038BD00BF20C40D4000C40D40010102005A
:101C900000200D4004200D4000000101034B0448CA
:101CA0001B6803F007031841704700BF04200D4074
:101CB0000048E801034B04481B68C3F302231841A2
:101CC000704700BF04200D400048E801024B02EBC2
:101CD000C10243F822007047F40A0020F8B5074615
:101CE0000E46094D002405EB411547FA04F3DB07C6
:101CF000E1B204D555F824300BB130469847013491
:101D0000082CF2D1F8BD00BFF40A00202DE9F047FD
:101D100080464FEA0837DFF8409007F1804505F527
:101D2000592500F0F7FDD5F8186457F809404FEA37
:101D3000C80A24FA0AF446EA0400E4B2C0B24146F2
:101D4000F6B204FA0AF4FFF7C9FFC5F81C6447F8B5
:101D50000940BDE8F08700BF18970D4002480021F8
:101D6000802208F013BB00BFF40A0020034A044B92
:101D70001A60044B803A1A60704700BF80400D40E3
:101D8000780B0020740B0020034B01EBC0011B6893
:101D900043F82120704700BF780B0020034B01EB74
:101DA000C0011B6843F82120704700BF740B00205E
:101DB000024A136843F030031360704700700D400F
:101DC0000E2870B50BD1164B164E1C6844F0020558
:101DD0001D60356825F03F0343F001033360124E68
:101DE000336823F0FF031A431143014331600F4B63
:101DF0001B681B06FBD50E4B0E4A1B6812680E288B
:101E000003F0FC0343EA022308BF064A9BB204BF67
:101E10001560034A9BB208BF146018B270BD00BFC2
:101E200034000144F486084008700D4000700D40F5
:101E30000C700D4010700D40024B1868B0FA80F025
:101E40004009704700B7084010B5074B4FF40042F7
:101E5000064CC3F89021C3F89020206818B101F017
:101E6000A3FC0023236010BD00E100E07C0B0020F8
:101E7000064A136843F002031360536843F00203F9
:101E80005360936843F002039360704748200D400D
:101E900007B50C4800F0B0FDFFF7EAFF0A4B1A68DF
:101EA00042F002021A6000220192019A0F2A02DC1B
:101EB000019A0132F8E71A6822F002021A6003B0B0
:101EC0005DF804FB391E200054200D40064A1368BB
:101ED00023F002031360536823F0020353609368F6
:101EE00023F002039360704748200D40084B93F99C
:101EF0000020002A09DB074AED2111601160E3216F
:101F000011601A7862F07F021A700120704700BFDA
:101F1000271E0020388808400B4B1A689207FBD414
:101F20001B685B065FBF094BED221A601A60084B05
:101F30001B6813B1054BEF221A60064A0120137883
:101F400003F07F03137070474C86084038880840C0
:101F50002C860840271E002038B5A0F10B04E3B200
:101F60000F2B054613D80B4B1B6813F03F0302D011
:101F7000FFF7D2FF012304EB8404074A0B341460FB
:101F80000BB1FFF7B3FF054BE8B21D7000E0FF2077
:101F900040B238BD488608403C860840BF0A002051
:101FA00010B50B4B1B68990603D1FFF79FFF012368
:101FB00000E00023074A1268D207FBD5064A1468DE
:101FC000C4F300140BB1FFF7A7FF204610BD00BFFC
:101FD00048860840648608404C860840044B1868D0
:101FE00000F02200A0F1200358425841704700BF82
:101FF0004C860840024B186800F04000704700BF54
:102000004C86084038B50C46002900F0888010281E
:1020100000F28780DFE800F0090F1A1C23394253D1
:10202000586F738585787A7C7F003F4B1B6800333F
:1020300018BF012370E03D4B05221B6803F07F03AE
:102040000B3B93FBF2F30B33DBB265E0384B00E064
:10205000384B1A68043B1B6843EA02235CE0002308
:102060000B60354B354A1B6803F001030B601268A7
:10207000900644BF43F002030B60314B1B78002BEA
:102080004BD00B6843F0040346E02E4B00201B7836
:102090000860002B41D001230B6038BD2A4B1A6821
:1020A0000023D2B2294901EBC3000079904202D843
:1020B00051F8333030E001330E2BF3D128E0244BBC
:1020C0001B685BB2493B27E0224B1B68990603D192
:1020D000FFF70CFF012300E000231F4A1268D2071C
:1020E000FBD51E4A1568493DEDB20BB1FFF714FF51
:1020F0006DB2256011E01A4B93F900300CE0194BDA
:102100001B7803F07F0307E00B2305E01A2303E0AD
:102110006FF0170300E007232360002038BD022082
:1021200038BD012038BD00BF2C8608403C860840E1
:10213000CC850840D48508400086084024860840A5
:10214000261E0020BE0A002040860840880221008A
:1021500058860840488608406486084060860840E3
:10216000251E0020241E002038B505460C46134BC2
:102170001B689B07FBD4124B93F90030002B01DB4B
:10218000FFF7B4FE0F4BEE221A60691E1A60A21C04
:1021900043F8102C2144022000F04AFB013C0A497C
:1021A00024012143022000F055FB022000F05CFBDB
:1021B000022000F071FB002038BD00BF4C860840B3
:1021C000271E00203888084002C001C0F8B5214B06
:1021D00093F90030002B0DDBFFF76AFB0446FFF795
:1021E00085FEFFF765FB6FF009031B1BC342F8D4A4
:1021F000012600E00026184B1B7823B9174D2B68E9
:10220000990604D405E0FFF7CBFE0028F6D10220A2
:10221000F8BD134CE923236004272B689A0707D4E1
:10222000013F17F0FF0703D00620FFF71DFBF4E77F
:102230002B689B0704D4EE2323602360012403E072
:102240002C6814F00204FBD10EB1FFF765FE2046A6
:10225000F8BD00BF271E0020BE0A00204C860840A3
:1022600038880840044B1A6810B142F0010201E0BE
:1022700022F001021A607047008608400B280DD139
:10228000082A0DD161B1074B083111F8012D43F82F
:10229000042F054A9342F8D100207047012070476F
:1022A00002207047A4850840C485084070B5304EB0
:1022B000336813F0400308D02E4D2B68DCB21B06A8
:1022C00005D52D4BED221A601A60002070BD042C3C
:1022D000F7D9023C8C42F4DCE4B2032C21D0011982
:1022E0000139032000F0ACFA631E24491B010320CE
:1022F000194300F0AFFA032000F0B6FA032000F013
:10230000CBFA032000F0D4FA0028FAD129681C4B3C
:102310004939C9B219702B681A4D18062B70D0D5DF
:1023200006E02B6803702B6843702B688370EDE721
:1023300049B289B2042006F017FE2978032001F083
:102340007F0106F011FE104B1B7873B933685A06F3
:102350000BD5074B1B681B0603D50C4801F024FA6C
:1023600003E0054BED221A601A60204670BD00BFE5
:102370004C860840288808403888084002C0010C74
:10238000251E0020241E0020261E00209C04002064
:102390000B282DE9F84F8A4611D1082A40F0828097
:1023A00000297FD0414B01F1FF3A53F8042D0AF880
:1023B000012F3F4A9342F8D10020BDE8F88F0C2846
:1023C0006DD1042A6ED100296CD03A493A480B6885
:1023D000DFF8EC9023F007030B600368DFF8E4B04C
:1023E00043F008030360DBF80040D9F800200B68D5
:1023F000DFF8D4C0DFF8D48023F070030B60D8F886
:102400000050DCF80030E4B2120244EA036392B2F6
:10241000DFF8BCE01A43EBB242EA03430024DEF8E3
:10242000002044EA03060B68D5B223F0070343F00B
:1024300001030B6003682F4643F008030360DBF8D9
:102440000000D9F800200B68120223F0700343F05B
:1024500010030B60D8F80050DCF80030C1B241EA3C
:10246000036392B21A43EBB242EA0343DEF8002060
:1024700044EA03085FFA82F9FFF71AFAB6EB080696
:1024800067EB0907F903054641EA5641F0030B4A99
:10249000002307F093FB281ACAF800008CE70120FC
:1024A000BDE8F88F0220BDE8F88F00BFC88508405E
:1024B000A885084010880840048808400048E801C2
:1024C000188808401488084020880840248808405C
:1024D0001C880840214B1870002834D0204B1B6802
:1024E0001B03FBD51F4B1A6842F002021A601A68E0
:1024F00042F001021A601A681A495007FBD50A68AF
:1025000022F001020A601968164A4907FBD41168D3
:1025100041F002011160116841F0010111601A6877
:102520005207FCD5104A136823F004031360D2F855
:10253000A83123F00403C2F8A8310C4B4FF4005229
:10254000C3F890207047084A136843F004031360EF
:10255000064B4FF400521A61704700BF261E002040
:1025600004200D40048808408C86084000E100E00B
:1025700010B50C4607285CD8DFE800F0040F1B1FDD
:10258000263C4256012903D1FFF7B0FC002010BDC4
:10259000002950D1FFF7C0FCF8E7A1F10B030F2B86
:1025A00049D8C8B2FFF7D8FC431C0CBF0320002059
:1025B00010BD8CB2E2B2214B02E08CB2204BE2B2F1
:1025C000240A1A605C60E1E731F0070333D101F0BF
:1025D0000100FFF747FE1B4B14F0020F1A68C4F30B
:1025E000800014BF42F0200222F020021A60FFF7A0
:1025F00071FFCBE731F001001DD1134B197010BDF5
:1026000001F118031F2B16D80D231049DA0051F8D9
:102610003300844204DC8B181A790D4B1A60B5E73D
:1026200013F1FF33F1D2B1E7CCB20A4B49341C604D
:10263000ACE7012010BD022010BD00BFC8850840D6
:10264000D085084024860840BE0A00208802210068
:102650004086084058860840F8B5294F3D7815F067
:1026600001054BD1274B01241C605C609C60A3F5E5
:102670009323A3F51473F8221A600922C3F890215A
:10268000152270331A6003F59B230B2203F59E730A
:102690001A60A3F59B23A3F5F07340221A601A6811
:1026A0007F2642F020021A60D52243F81C5CDE62CD
:1026B000DA61154B1878FFF74FFC144B4FF480424A
:1026C0001E60134B02201A6100F0DAF81149022053
:1026D00000F0B6F8032000F0D3F80E49032000F014
:1026E000A7F80D4B1878FFF7F5FE0C48294601F0C6
:1026F00043F83B78204623433B70F8BD0020F8BDEB
:10270000271E0020A8200D40BF0A00209486084004
:1027100000E100E028880840261E00209C040020DC
:1027200038B503880446CBB140F20342934203D04C
:1027300000230380032038BD194B18781A4628B1AE
:102740001B7873B1174B1B7858060AD5822908D11C
:10275000137843B1134B1A78520614D440F2034352
:102760002380012038BD06F0A5FB06F039FB80214F
:10277000FFF79CFD0028EDDD80B206F015FB0A4B4B
:102780001B699847E6E700221A70084B1D68FFF79F
:10279000C3FBFFF761FFAB06E0D0FFF7A7FBDDE768
:1027A000261E0020271E00208403210048860840A2
:1027B00008B5054B1B7813B9044800F0F5FF044B2E
:1027C00000221A6008BD00BF261E00209C040020C5
:1027D00034880840064B07481A68042A1FBF064978
:1027E0000A7842F040020A7000221A6000F0DCBF52
:1027F0002C8808409C040020271E002010B5094C9E
:1028000040222046002107F0C1FD074B01221A603B
:102810005C60064B4FF480425A604FF400425A60AD
:1028200010BD00BF0000002004F00F4000E100E0F8
:1028300003289EBF014B0001195070470000002083
:1028400003289EBF024B03EB00104160704700BF9E
:102850000000002003289EBF024B03EB00108160A4
:10286000704700BF0000002003289FBF03490123D9
:102870000A6883409CBF13430B60704728F00F40E9
:1028800003289FBF034901230A6883409CBF134369
:102890000B60704720F00F4003289FBF03490123BE
:1028A0000A6883409CBF13430B60704714F00F40CD
:1028B00003289FBF044B03EB0010806800F0070063
:1028C00088BF0020704700BF00000020024B4FF07F
:1028D000FF321A60704700BF04F50F40014B012220
:1028E0001A6070474CF00F40094B1A6812F4801FB1
:1028F0001A46F9D1043B196821F480311960116836
:10290000C903FCD41A6842F400321A60704700BF51
:1029100004200D4010B50A4B1A681C4612F0030F34
:102920000CD0084B1A685101FBD41A685201FCD52F
:10293000FEF7A8FFFFF7D8FF0023236010BD00BFFC
:1029400058200D4004200D4038B5254B1C6814F06C
:102950003F0413D1234B53F8243023B1984768B177
:102960000134052CF6D1204D2B783BB1FEF79AFFB0
:102970000446FEF79DFF201A092801D830BF38BD54
:10298000002CFBD0194B1A6822F400321A60184A46
:102990001168C902FBD4196841F4803119601368C9
:1029A000DB03FCD5FEF784FF201A092803D8BDE815
:1029B0003840FFF799BF63280E4C02D92B78022BC1
:1029C00000D00123236000F0A5FE20B1FFF78CFFAB
:1029D0000023236038BDFEF765FF0028CED1F5E760
:1029E00048860840800B0020281E002000200D4053
:1029F00004200D4058200D400023064A52F82310B1
:102A0000814206D011B942F8230070470133052BEB
:102A1000F3D17047800B0020054B00221A60054A55
:102A2000136943F004031361034B01221A707047CA
:102A300058200D4000ED00E0281E002010B5074B87
:102A40004FF48032064CC3F89021C3F890202068E0
:102A500018B100F0A9FE0023236010BD00E100E0E2
:102A6000940B002030B5184B1A78431E3AB9174A18
:102A70001278122A03D1164A12784B2A03D001F594
:102A80002011273117E04A0802F12814B4F1281F59
:102A900004D014F8015D03F8015FF7E701F5201198
:102AA00027310023934205DA11F801598418E554BF
:102AB0000133F7E730BD074A914204D011F80129EC
:102AC00003F8012FF7E730BD2B0028002A0028006B
:102AD00029002800270028000FB407B504AA52F8DF
:102AE000041B0448019200F039F803B05DF804EBD0
:102AF00004B07047AC0400200EB43FB5094B07AAE0
:102B000052F8041B0190049304A801AB03920593AF
:102B100000F024F8019B00221A7006B05DF804EB67
:102B200003B070472BEB200070B505460C46102C07
:102B300007D92B68686808491022984750B9103C9B
:102B4000F5E734B12B6868682246BDE87040024959
:102B50001847204670BD00BFF40721002DE9F04F53
:102B600080468FB0069107920026069B1B78002BAB
:102B700000F05F83069B1C4613F8012B1AB9069BD5
:102B80009C4203D10FE0252AF5D1F8E7069BD8F83F
:102B90000400E51A0699D8F800302A46984700281C
:102BA00040F02A832E442378002B00F04283637880
:102BB000611C002B00F03D8300240A4611F8013B04
:102BC0002B2B11D006D8202B11D0232B12D144F05F
:102BD0000804F2E72D2B04D0302B0BD144F0100465
:102BE000EBE744F00104E8E744F00604E5E744F0CD
:102BF0000204E2E7A3F1310108290DD813460025AC
:102C00001A4613F8011BA1F13000092811D80A2235
:102C100002FB0515303DF3E72A2B09D1079B013252
:102C20001D68191D002D0791B8BF44F0010400E094
:102C3000002513782E2B1CD15178531CA1F13000A4
:102C400009280ED8194600270A780B46A2F1300051
:102C5000092801F101010FD80A2303FB0727303FA0
:102C6000F2E72A2906D1931C079A111D07911768CC
:102C700002E013464FF0FF371A786C2A09D15A78D0
:102C80006C2A02D144F080040AE0013344F060046D
:102C90000BE0682A09D15A78682A03D144F020044D
:102CA000023302E0013344F040041A78642A3CD035
:102CB0001FD8462A48D00DD8252A5AD003D8002A32
:102CC00000F0B78257E0412A4AD0452A53D144F454
:102CD000424450E0582A31D004D8472A4BD144F41A
:102CE000A13448E0612A38D0632A44D144F4A06476
:102CF00041E06E2A3AD007D8662A22D027D3672A25
:102D000028D0692A11D036E0732A2CD006D86F2A31
:102D100011D0702A2FD144F440742CE0752A07D0CA
:102D2000782A28D144F4C85425E044F4245422E0FD
:102D300044F410641FE044F488541CE044F4B244AA
:102D400019E044F4007416E044F4844413E044F4BD
:102D5000024410E044F481340DE044F4C1340AE04C
:102D600044F4E13407E044F4806404E044F4E064B3
:102D700001E044F4C0640133069304F4E063B3F566
:102D8000806F00F0AA8116D8B3F5807F2BD0B3F501
:102D9000407F7FF4EAAE079BA04914F4804F03F113
:102DA00004029F4818BF08460DF1330107920F46F1
:102DB0001A680023C5E1B3F5C06F08D0B3F5E06F22
:102DC00000F03182B3F5A06F7FF4CFAE00E2D8F807
:102DD0000030D8F80400934901229847002840F0B9
:102DE0000B820136C1E6002FACBF24F0100401278E
:102DF00014F40053039304F0E00337D0402B17D0B2
:102E000008D8DBB1202B2AD1079B1A1D079293F912
:102E1000002017E0602B11D0802B20D1079B0733B7
:102E200023F0070303F108020792D3E900230AE025
:102E3000079B1A1D0792B3F9002003E0079B1A1D98
:102E400007921A68D317002A73F1000109DA524277
:102E500063EB4303CDE900234FF0010933E0002287
:102E60000023CDE900234FF000092CE0402B16D0C1
:102E700007D8CBB1202B20D1079B1A1D07921A78B7
:102E8000EEE7602B10D0802B17D1079B073323F080
:102E9000070303F108020792D3E90023E1E7079B48
:102EA0001A1D07921A88DBE7079B00211A1D07925B
:102EB0001B681846CDE90001D5E700220023CDE9C3
:102EC00000234FF0000904F4C053B3F5805F0CD029
:102ED000B3F5C05F33D0B3F5006F4FD1DDE9002308
:102EE0000DF1360ACDE9042304E0DDE900230DF1FC
:102EF000360A15E0DDE9042313433AD0DDE9040185
:102F00000A22002306F05AFEDDE9040130320AF8F5
:102F1000012D00230A2206F051FECDE90401E9E764
:102F200052EA030125D002F0070130310AF8011DF1
:102F3000D10841EA4371D8080A460346F0E7384B06
:102F400014F4804F0DF1360A344908BF1946DDE903
:102F5000002352EA03000CD002F00F00085C4FEA95
:102F6000131E0AF8010D100940EA03700246734669
:102F7000EFE70DF1360BCAEB0B0B03E00DF1360A50
:102F80004FF0000B41F6080241F208035F4502EAE8
:102F900004028CBFCBEB070700279A4202D1002F17
:102FA00008BF012741F608018A4207EB0B030DD148
:102FB000DDE9000150EA010208D01B4914F4804FFA
:102FC0001A4A4FF0020C18BF0A4602E04FF0000CFC
:102FD00062460399A1B1B9F1000F0AD104F00601CC
:102FE00002290AD00629124904BF4FF0010C0A46F3
:102FF00006E04FF0010C0F4A02E00F4A4FF0010CBF
:1030000063449D428CBFED1A002514F0010922D1C2
:10301000E30613D52F444D461DE000BFBF07210036
:10302000D0072100F2072100E4072100E107210079
:10303000E9072100E70721007E06210040462946D6
:10304000CDF80CC00092FFF76FFD009ADDF80CC0C0
:10305000002840F0D180BCF1000F0DD01146D8F807
:1030600000306246D8F80400CDF800C09847DDF87B
:1030700000C0002840F0C0803C465E44102CD8F8C8
:1030800000300DD9D8F804006C491022CDF800C0EA
:103090009847002840F0B080103CDDF800C0EDE714
:1030A0005CB1D8F8040065492246CDF800C09847C5
:1030B000DDF800C0002840F09F80D8F80030D8F834
:1030C000040051465A4666449847002840F09480D0
:1030D0003E44B9F1000F79D073E0079BD3F800A00C
:1030E0001A1D0792BAF1000F09D05346994699F874
:1030F00000200133002AF9D1CAEB090903E0DFF807
:1031000040A14FF00609002F02DBB94528BFB946A0
:103110004D458CBFC9EB0505002514F0010405D110
:1031200040462946FFF700FD002865D1D8F8003059
:10313000D8F8040051464A46984700285CD14E44CE
:103140003EE052EA030E0ED002F00F0E10F80EE031
:103150004FEA131C01F801ED4FEA121E4EEA037EFE
:1031600072466346EDE70B467F1A01BF3022012706
:1031700001F1FF3301F8012C03377822BD4203F837
:10318000012C4FF0300203F8022C88BFED1B4FF0EA
:10319000230298BF002514F00104A3F1030903F8EA
:1031A000032C04D140462946FFF7BEFC20BBD8F8CB
:1031B0000030D8F8040049463A469847E0B93E4402
:1031C00024B140462946FFF7AFFCA8B92E44CCE411
:1031D000079B012D03F104021B688CBF05F1FF352D
:1031E000002514F0010407928DF8203008D14046E4
:1031F0002946FFF799FC10B14FF0FF301AE02E443A
:10320000D8F80030D8F8040008A90122984700280F
:10321000F2D16F1C2CB140462946FFF785FC0028EF
:10322000EAD13E44A1E4079B1A1D1B6807921E6069
:103230009BE430460FB0BDE8F08F00BFAF07210020
:10324000EB072100F8B50388064615462BB14A2B3B
:1032500015D0002303800320F8BD17480BF0FBFCBA
:1032600004462CB1201DA1680BF07CFC2468F8E713
:10327000124B01221A704A2333800120F8BD88299D
:10328000FBD10D480BF0E7FC0446002CF3D0231DC6
:103290009D420ED1084821460BF0E7FC084B6269BD
:1032A0001F681A60A2691D460AB1E06990472F6045
:1032B000E1E72468E9E700BF980B0020291E002001
:1032C000A40B002010B5064B002406481C700BF020
:1032D000BFFC2146BDE81040034800F04DBA00BFD6
:1032E000291E0020980B0020B404002070B504466D
:1032F000E3610B4B049D1B786561A26143B1094DED
:10330000094B2E68201D2B600BF02CFC2E6000E07A
:10331000A1602146BDE8704004480BF0BABC00BF74
:10332000291E0020A40B0020B4040020980B0020CC
:1033300013B5034C24680094FFF7D8FF02B010BD0A
:10334000A40B002070B5094B05461B783BB1084C17
:10335000084B2668043023600BF00DFC26602946DC
:10336000BDE8704004480BF094BC00BF291E00204B
:10337000A40B0020B4040020980B002070B5094B6A
:1033800005461B783BB1084C084B26680430236087
:103390000BF0FAFB26602946BDE8704004480BF0AC
:1033A00078BC00BF291E0020A40B0020B40400201C
:1033B000980B002010B5084B04461B781BB1043055
:1033C00000F0B8F801E0C36003612146BDE8104099
:1033D00002480BF04ABC00BF291E0020980B0020B9
:1033E00010B50446FEF736FA94E80C001344C01AF0
:1033F000024B98428CBF0020012010BDFEFFFF7FD2
:1034000010B50E4C236813B90D4A136010BDFEF7BA
:1034100017FA216891E80C001A44131A8A6842B11D
:1034200092E812002144091A8B4228BF0B46926889
:10343000F5E71844024B186010BD00BF9C0B00203C
:10344000A00B0020014800F0AFB900BFC404002069
:10345000F8B5038805462BB1592B09D0002303800A
:103460000320F8BD1E4A136059232B800120F8BDAC
:10347000872920D08229F7D1194F00263C68002CDB
:10348000F2D020460BF0ABFB90B1E06888212246D9
:1034900000F04AF950B9E060A3680EB1B36000E0F3
:1034A0003B600023A360FFF7ABFFE5E7FFF7CAFF30
:1034B0002646A468E3E70A490B680BB90B60D3E71B
:1034C000D868904201D19B68F7E70B6099680029A2
:1034D000CAD0C86890420ABF89680B469960F5E770
:1034E0009C0B002010B50446FFF7ACFFE3680B4AC5
:1034F0004BB113683BB1A34203D1094A1268DA60A9
:1035000007E09B68F6E7064B1B68E36013681460EE
:10351000A360BDE81040FFF773BF00BF9C0B002005
:10352000A40B0020024B1868003018BF0120704720
:103530009C0B002010B50B4A04461368984206D134
:103540008368136008E09A68A24203D01346002BF8
:10355000F9D103E0A2689A60FFF752FF0023A3604D
:10356000E36010BD9C0B002038B5836804460D460F
:103570009BB10A4804600220A07304F10C00984734
:103580000238012801D9832D05D120462146BDE806
:10359000384000F005B80123A37338BDA40B002008
:1035A0002DE9F8431C4A0446156889462B46904687
:1035B0001A4E3768A34204D00BB11B68FAE7BDE886
:1035C000F88334B3A37BABB10023A37345B1AC4202
:1035D00004D02846872122460BF0E7FA2D68F5E74C
:1035E000A3683BB14C4505D0346004F10C00832145
:1035F0002A469847D8F800309C4203D12268064BEF
:1036000005E0134623B11A68A242FAD122681A6073
:103610003760BDE8F88300BFA80B0020A40B002092
:1036200010B5094B00221A70084B1C685CB1E37B93
:103630003BB101230022A373E27320468221FFF7EE
:1036400093FF2468F2E710BD2C1E0020A80B002079
:10365000024B1878421C1A70704700BF2D1E0020C4
:10366000064B8A221A70064A00231370054A13700B
:10367000054A1360054A1360704700BF2D1E0020E5
:103680002A1E00202B1E0020A80B0020A40B0020C7
:103690002DE9F0411A4D2B780BB1FFF7C1FF194C02
:1036A00022783AB3184E0C213378184F59437818C2
:1036B00017F8018001334768806803F01F03013A5F
:1036C0003370227068B9124B1E689EB12B780BB113
:1036D000FFF7A6FF304641463A460BF066FA3668D9
:1036E000F3E7B8F1810F04BF0123837341463A46E3
:1036F0000BF05BFA2B7820781844BDE8F08100BF0E
:103700002C1E00202B1E00202A1E0020AC0B0020A7
:10371000A80B0020024A034B10781B78184470470E
:103720002B1E00202C1E0020F0B50B4E3378202BD2
:103730000FD00A4C0C252478094F1C4404F01F04B8
:103740006C4301333D19A86039556A60337000201D
:10375000F0BD0120F0BD00BF2B1E00202A1E00205E
:10376000AC0B002038B5034C25680BF01EFA256021
:1037700038BD00BFA40B002010B50A4609490C68EB
:10378000234683420DD00BB11B68FAE748B10460B1
:1037900008600121817383818121BDE81040FFF71A
:1037A000E1BF10BDA80B002038B1837B013B012B8A
:1037B0009FBF024A0123C373137070472C1E002061
:1037C00010B5084C206858B1002323608168436815
:1037D0009847236823B1BDE810401868FEF77EB80B
:1037E00010BD00BF2C0D002038B505880446672D9C
:1037F00009D0792D2ED0002D32D1FFF729FF1B4B98
:1038000018701B4B1D601B480BF012FA431C01D1B2
:1038100067231DE00A28164B07D01A687E2AF2DCBF
:10382000511C1960144B9854EDE7196800254A1C87
:103830001A60114A0D4B555428461978FFF774FF4A
:103840000E4B852118682A46FFF76EFF20B97923B1
:10385000238009E0852907D1054B00221A60D2E7B1
:1038600000230380032038BD012038BD58320020DA
:10387000380D0020300D0020AF1E0020A40B0020CA
:103880000D2810B5014615D00B4C23782BB90B48E9
:103890000BF0BAF948B9012306E00A2805D1074818
:1038A0000BF0B2F908B1002323700548FFF77CFF45
:1038B000012010BD002010BDAE1E0020300D0020E4
:1038C000D404002008B50548054980220BF095F97D
:1038D000BDE8084003480021FFF74EBF300D00202F
:1038E0002E1E0020D4040020054A136843F0040370
:1038F0001360044B1B68906943EA002080B2704754
:1039000000700D4014700D40174A136823F00C032B
:103910001360164B01221A601A68012AFCD1144B5D
:1039200008221A60E322C3F8142203F5057319462E
:10393000104B1B68DB07FBD5102000230E4A013813
:10394000126802F0010243EA02034FEA43039BB20A
:10395000F4D1002BF0D0094A180A03F0FE031060DE
:103960001360EF230B60704700700D40A8200D40DE
:1039700024860840648608409C86084014700D40E8
:103980002DE9FF411F4C204D04F108030FCB8DE8BA
:103990000F0029786F4694F80780A1B13A23A371EC
:1039A0001A4B1A88521A92B21A80A2F128031812DE
:1039B0002C312071214404F12C002C3A637106F063
:1039C00081FC00232B7012480BF045F9064690B19C
:1039D000D6F804C0BCF1000F09D00C4B2A781B8824
:1039E00038322C3B3846414622449BB2E0473046B1
:1039F0000BF06EF9EAE7054B2870188004B0BDE8BB
:103A0000F08100BF40280020451F00202C28002006
:103A10003C0D0020F8B52A4B2A4C1B7904F11806FE
:103A2000E371237E04F10805FF2B08D195E80F0010
:103A300086E80F002846314600F0C0FA1BE02F460A
:103A4000B646214A3B4603CB7345106051601F4682
:103A500002F10802F6D196E80F0085E80F001A4B34
:103A60001A4D03F110062A4618685968083303C234
:103A7000B3421546F7D1164D297899B13A23A3716F
:103A8000144B1A88521A92B21A80A2F12803181203
:103A90002C3120716371104821442C3A06F012FC3D
:103AA00000232B702B7881222833E518E254002361
:103AB0006B706B800BF0D5F9C0436880F8BD00BF18
:103AC000C02600204028002024180020582800206C
:103AD000451F00202C2800206C28002038B5044603
:103AE0000B480D460BF0B7F878B10379A34209D122
:103AF0004379AB4204D183683BB19847002038BD7D
:103B0000FF2BF8D00BF0E4F8EEE7012038BD00BF42
:103B1000400D0020014601480BF0BBB8400D0020CD
:103B20002DE9F74F484D81462B7888469246474C01
:103B300043B12833E35C3A2B0BD1454A0023138071
:103B40002B707EE0A3793A2B03D194F92830002B17
:103B5000F3DA04F065F93F4E3F4AB446934606F166
:103B6000100E334603CB7345106051601E4602F1C0
:103B70000802F6D1364E2F78338804EB47003033F5
:103B80009BB2B3F5A06F88BF4FF4A0633380328837
:103B90002E4BD21B1946303A3030CDF804C000937A
:103BA00006F090FB9DE808106022227000226270EF
:103BB00062803A2217B183F8282000E09A71274AE0
:103BC000224B1279E271228972B95A8962B99A89B3
:103BD00052B9DA8942B91A8A32B95A8A22B99A8A0A
:103BE00012B9DB8A002BA8D01D4B0FCB8CE80F003D
:103BF0009BF80030FF2B05D1B9F1040F9DD1B8F12E
:103C0000020F9AD11449164800F0D8F92F7850467F
:103C100007F12803E21804F8039082F801800BF002
:103C200029F933882C37283BE0511A1263712B781D
:103C3000227128331C44002363800BF012F9C04327
:103C4000608003B0BDE8F08F451F002040280020B1
:103C50002C2800205828002024180020C0260020EE
:103C6000482800202DE9F0411E460F461B49054615
:103C70000C4660230B7000234B704B803A238B71F2
:103C8000174B90461B7900F1100ECB71331D1A12A1
:103C90000A714B7101F118021346286869680835EA
:103CA00003C375451A46F7D10E482C3600F11001B2
:103CB00000F084F90C4B1B782833E518E7540023F7
:103CC0006B8085F801800BF0CCF8C043074B68800F
:103CD0001E80BDE8F04103F031B900BF402800204C
:103CE000C026002048280020451F00202C28002046
:103CF00008B50448FFF70EFFBDE808400248FFF78B
:103D000009BF00BFE4040020F00400202DE9F341C6
:103D10000446154D00910E4690461F4601952346D8
:103D20001248032120220BF02CF801282B4616D133
:103D30002A6804F11001107020462A68023250F8F7
:103D4000044B884242F8044BF9D11868089B8674EA
:103D50004361099B80F813800777836100E00020AE
:103D600002B0BDE8F08100BF480D0020BC27002054
:103D700070B506460B4D0C4B2B602C680B4B9C42D0
:103D80000BD2237833B1A27CA01C3146D20806F0B6
:103D9000F1F920B120342C60EFE7002070BD012044
:103DA00070BD00BF480D0020BC2700201C2800204B
:103DB00013B5084C80220346009201940648032163
:103DC00020220AF0DEFF08B9206800E0002002B0DF
:103DD00010BD00BF4C0D0020D826002010B50C4AA5
:103DE0000C4B136013680C498B420DD2197849B102
:103DF000411C02D0997C814204D148F2FE015C88CA
:103E00008C4202D02033ECE70023184610BD00BFDF
:103E10004C0D0020D82600203827002037B5044656
:103E20000F4D80230093019523460E480521122251
:103E30000AF0A7FF01282B460ED12A6804F11001D1
:103E4000107020462A68023250F8044B884242F82B
:103E5000044BF9D1186800E0002003B030BD00BF6A
:103E6000440D00205C270020F7B50546204C802338
:103E700000930E46174601941E48032120222B462C
:103E80000AF07FFF012830D12A46236805F110018E
:103E900018702368023352F8040B8A4243F8040B6B
:103EA000F9D12068C77416B90123037505E0002312
:103EB0000375314618300AF04EFE23680E48012182
:103EC000997402234370FF22002302704380838091
:103ED000C38003818372C17202736B7B4373EB896E
:103EE000C381FFF79BFF206800E0002003B0F0BD16
:103EF0004C0D0020D82600203418002013B5084CA3
:103F000080220346009201940648052112220AF0FD
:103F100038FF08B9206800E0002002B010BD00BFE3
:103F2000440D00205C27002038B50546C8B10D4877
:103F3000022200244270FF230122C2724480848046
:103F4000C4800481847203730370EB7B43732B8AF8
:103F5000C381FFF7D3FF044A106008B10AF035FFB0
:103F60002C7038BD34180020440D002010B50F4BC4
:103F70000F4C236020680F4B98420ED203784BB150
:103F8000037D3BB91830FFF72BFA18B1084B1868BE
:103F9000FFF7CAFF23682033EBE700F0EBFA01F0EC
:103FA000BBFBBDE8104004480AF0E5BDD826002060
:103FB0004C0D0020382700201C2800202DE9F84354
:103FC00048F2FE030A8805469A42884621D00B78BB
:103FD000FF2B1ED01B4B0024A1461F461A4A1A6015
:103FE0003E681A4A964218D233787BB1B37C012BD3
:103FF0000CD148F2FE0372889A4207D04046B11CA9
:104000000AF0F0FE484524BF3446814620363E6023
:10401000E6E70120FFF7E2FE04464CB92C806C80F5
:10402000AC80EC802C816C81AC81EC81BDE8F883A4
:10403000A31C123453F8042BA34245F8042BF9D1E6
:10404000BDE8F8834C0D0020D8260020382700203A
:1040500010B5FFF749FC0446FFF746FC054B240268
:104060009A68A4B22044B0FBF2F302FB130000EB09
:10407000520010BDC026002073B52F4C01F0C4FAC9
:1040800000F08EF8002160222C4806F07FF9002114
:104090002046F82206F07AF9294B20221A70294B83
:1040A00018221A704FF4A0632360274B4026267114
:1040B000A360FFF7CDFF42F21073236148F2FE03C5
:1040C000314640F2FF260025E06025751F4C2A4648
:1040D000238065802B46A580E580204600950195CC
:1040E000FFF714FE20461A490AF073FE2946012202
:1040F0002046FFF7B9FE4FF480732046E381268007
:104100006580A580E58025816581A581FFF786FE14
:104110004FF40073204626806580A580E5802581C8
:104120006581A581E381FFF779FE0A480C2102B081
:10413000BDE870400AF016BDC0260020BC27002054
:10414000B9270020B8270020C02709003418002014
:10415000382800201C2800202DE9F04105460D4894
:104160000F4690460AF077FD044688B1012D04D829
:1041700009480AF0A6FD034601E0084B1B682846E3
:10418000666839464246B04720460AF0A1FDEBE793
:10419000BDE8F081CC0F0020940D0020900D002090
:1041A00008B50B480AF097FD0A480AF051FD0A4B82
:1041B0000A49186804F000FD09480AF08CFD094816
:1041C0000AF046FDBDE8084007480AF041BD00BFBF
:1041D0001C050020E80D00201805002027EE200017
:1041E000FC040020940D0020CC0F002008B50346ED
:1041F00040B1054A596810680BF020FDBDE8084041
:104200000AF042BE08BD00BF1805002001480AF0B0
:1042100022BD00BFE80D002008B50AF037FE0146B8
:1042200038B1044B18680BF0F0FC003018BF0120C7
:1042300008BD08BD180500202DE9F0418046FFF7B4
:10424000E5FF0026044637469CB194F82450B54259
:104250000AD3404604F10801EA0805F08BFF18B9BB
:10426000802D08D02E46274620460AF0D8FD044669
:10427000EAE73C4667B108480AF0EDFC844207D003
:10428000054821460AF0F1FC034821460AF010FDDA
:104290002046BDE8F08100BFE80D002038B5044697
:1042A00000283ED04368002B3BD01E4821460AF030
:1042B000DCFC636858680AF0CEFC054630B1436800
:1042C000A34207D028460AF003FDF6E704F10800F0
:1042D00002F07AFD6368294658680AF0C6FC6368F4
:1042E00058680AF0B8FC28B963680F4A5968106822
:1042F00004F01AFD21460D480AF011FD29460C482C
:104300000AF00DFD0B4A20461368013B1360FFF7CE
:104310006DFF04F108010246BDE838400320FFF7B5
:104320001BBF38BDE80D0020180500201C0500202B
:1043300028050020900D002010B5044680B140688B
:1043400070B10AF088FC20B14068FFF7A7FF6068F1
:10435000F7E7044B2146BDE81040186804F0E4BCC0
:1043600010BD00BF180500202DE9F84F0746104684
:10437000894690460AF08AFD834610B90020BDE8C0
:10438000F88F3846FFF758FF044660B1FFF72EFF5D
:10439000014628B14046102205F0ECFE002859D015
:1043A0002046FFF77BFF2D4B1A689A460A2AE5D074
:1043B0002B4E594630680BF028FC054668B92B4651
:1043C00030685946042204F025FC05460028D5D063
:1043D0000023686003600AF03BFC22480AF08BFC73
:1043E00004460028CAD0204821460AF061FC1F4834
:1043F0000AF081FC834620B921461A480AF08FFC56
:10440000BCE74460686859460AF043FCDAF80030BB
:104410006560013330682946CAF8003004F09AFC20
:104420003B4604F1080507F110062A46186859684A
:10443000083303C2B3421546F7D100210C2284F899
:10444000249004F1180005F0A1FF022039464246ED
:10445000FFF782FE2046BDE8F88F00BF900D0020D8
:10446000180500201C050020E80D0020280500206C
:1044700038B505460D480AF0EEFB0446A0B1AC4243
:104480000ED1214609480AF0F0FB214608480AF0FF
:1044900046FC211D01200A46BDE83840FFF75CBEFE
:1044A00020460AF015FCE8E738BD00BF940D002057
:1044B000FC04002038B5054608480AF0CCFB044649
:1044C00048B1201D2946102205F054FE18B120469F
:1044D0000AF0FEFBF3E7204638BD00BF940D002034
:1044E000F8B505460F46FFF7E5FF044640B9134807
:1044F0000AF001FC0446F0B1114821460AF0D8FB4D
:104500002B46261D05F1100E3246186859680833EF
:1045100003C273451646F7D137B104F1140039468A
:104520000AF019FB002300E001232377002029462D
:104530002A46FFF711FE2046F8BD00BFFC0400200C
:10454000940D002038B50A480AF085FB0446002582
:104550005CB1251D284601F0A1F808B1437C23B9C0
:1045600020460AF0B5FB0446F2E7284638BD00BFF6
:10457000940D002010B50A480AF06DFB044670B196
:10458000237F43B904F11400FEF72AFF18B1204637
:10459000FFF76EFFEFE720460AF09AFBEEE710BD4B
:1045A000940D002037B5124B124D1C782B796A7987
:1045B000C4EB032313449BB2ADF80630BDF80630BC
:1045C00005F108011844202280B20AF02EFCBDF843
:1045D000062004F12801294492B20AF026FC10B109
:1045E00040BA80B201E04FF6FF7003B030BD00BFAB
:1045F000451F0020402800202DE9F041264F274E7E
:104600003D7827482835AB195C780223E40007344D
:104610009C423DDBE9187218715CDFF8808001294B
:1046200031D002D3632902D011E001332EE00370B0
:1046300018461B4C03F074FBD0B13B78227828332A
:10464000134443445B7813440233237021E001F0A8
:10465000C001802905D0C02905D0402913D103709D
:1046600006E0037007E098F818200370FF2A02D1D3
:104670000120BDE8F08104200221EA18FFF750FA7A
:104680000220BDE8F081527802321344DBB2BFE76A
:1046900003700020BDE8F081451F00204028002065
:1046A0004B1F0020F0B5C578124A0D44EDB2D5700D
:1046B00083780F0A3B44DBB293704478BB4254705A
:1046C0000678167005D2601CC0B2507008B9013669
:1046D0001670C9B28D420CDA0133DBB20549937012
:1046E0003BB94B780133DBB24B7013B90B78013314
:1046F0000B70F0BD3428002010B5084C014620682E
:104700001430FFF7CFFF064A2368117819755178E6
:1047100059759178D2789975DA7510BD642D00209D
:104720003428002008B5FFF7A7FCFFF7E1FA01F0F5
:1047300031FB00230E49002221F813200133082BFE
:10474000F8D10C49002311443032B2F5F07F81F8E2
:104750002530F6D1084A4FF480611180074A0021C4
:104760001A442033B3F5A07F1182F7D108BD00BFF2
:10477000502F0020682D002044180020642F0020B6
:104780002DE9F041124F3D7805B3DFF84C8005F17B
:104790002703B8F80040A34203DB0023A8F8003049
:1047A00013E00C4EA4F1280205F12801641BA4B209
:1047B00006F128003144521B05F084FDA8F80040A2
:1047C000283C23123371747100233B70BDE8F081E3
:1047D000451F0020402800202C280020F8B5034663
:1047E0001D4804460288013292B2B2F5FA4F28BF42
:1047F0004FF4805250BA80B20026184D77193F8A84
:104800008742F0D02036B6F5A07FF6D12280002274
:104810005601AC19278A47B92082618253B92046D4
:104820001946102205F0B2FD0FE001320A2AEFD13D
:104830000020F8BD274603F1100E3A461868596863
:10484000083303C273451746F7D1054B35441B792E
:1048500020462B75F8BD00BF44180020642F0020AF
:10486000C02600200023064A32F81310814203D1EB
:10487000002122F8131070470133082BF3D1704741
:10488000502F00202DE9F74FA44E04283468A44F80
:1048900000F07A82A349A44DA44A03280D60156054
:1048A0008A4615D194F8253003F00F03032B08D165
:1048B000A38B002B40F07E869D4B08221A7000F0DF
:1048C0006FBD022B40F07686002305F8073CBDE360
:1048D00002287AD1974A00231370974A3B801380AD
:1048E000964AD3780133DBB2D37063B9937801333E
:1048F000DBB293703BB953780133DBB2537013B919
:1049000013780133137094F8253003F0FD02052A63
:104910000DD194F826300133DBB2782B84F82630A1
:1049200040F04886002384F8253000F043BE002B79
:1049300000F04086A28B7E48002A3DD094F82620C5
:10494000511E84F82610002A40F0348694F827205F
:10495000082A04D0591E01290AD8052A08D10023A3
:1049600084F825308023037002F052FC00F026BD4D
:10497000042A9CBF0321914003F00F0394BFC9B2E6
:1049800030210132013B84F8261084F82720072BC0
:1049900000F21086DFE813F0560308000A00CD0489
:1049A0000E06CD040E06CD0400224CE30423037052
:1049B00002F02EFC00F02EBD03F00F03032B40F09D
:1049C000F9850823037000F0EBBC052811D15C4B7E
:1049D0001B681B8A002B00F0ED850C3D1560564AC4
:1049E0000023138033603B80514B08220D601A7006
:1049F000C8E115F83C3C3C3D03F0F003602B40F06F
:104A0000D9852B796A791B0239889818884200F376
:104A1000D185283213443B802B7AFF2B00F0CA85C6
:104A20002B7EFF2B03D005F108000AF038FA454A27
:104A3000454E404B3260454CA2F10609AA7900214F
:104A4000197021709846BAB901232370FFF7D4FD7D
:104A5000012800F0AF8503D3022800F0A7850BE002
:104A600098F8003003F128024A4432605278083343
:104A700003EBC20388F800303548FFF799F90028A6
:104A800040F0B4803248FFF739FA002840F0AE8099
:104A90002A7E2F4BFF2AA3F1180362D048F2FE00B2
:104AA000198B81425DD0198981425AD079B95989CF
:104AB00069B9998959B9D98949B91B8A3BB9698AB0
:104AC000244B21B9998A11B9DB8A002B49D0298B53
:104AD000204B79B9598B69B9998B59B9D98B49B997
:104AE000198C39B9598C29B9998C19B9DB8CB3F562
:104AF000807F36D03B88B3F5A06F04D90220002117
:104B00004FF4A06205E0EB79012B25D800210A467D
:104B10000320FFF705F800F049BD00BF642D002019
:104B20002C280020602D00207C2800203028002028
:104B3000542D0020451F0020602F0020471F00201B
:104B40005C2D002046280020582D0020461F002004
:104B50005828002040280020A64A013BD37100F0CD
:104B600025BD48F2FE032989994240F02385298B0F
:104B7000A04B81B9598B71B9998B61B9D98B51B956
:104B8000198C41B9598C31B9998C21B9DB8CB3F5A9
:104B9000807F00F00F85FF2A00F00C859648FFF714
:104BA000E7F80246002840F0058501200221B0E721
:104BB00025D9B9F13A0F78D02CD9B9F13B0F00F0D3
:104BC000F984B9F13C0F6CD123788C4998073BD517
:104BD000580666D443F040030B70FFF70DFD012823
:104BE00000F0E88433D3022800F0E0843268DFF874
:104BF0003CB292F80090B9F12B0FD9D134E0B9F161
:104C0000060F00F01581B9F1110F6FD0B9F1000F47
:104C100047D104E0B9F12C0F00F0CC8441E02378B7
:104C2000D9073ED4754A43F001031370FFF7E4FC43
:104C3000012800F0BF84D6D298F8003003F1280292
:104C40002A44CBF8002008E043F00203C4E798F8B8
:104C5000003003F128022A4432605278083303EB13
:104C6000C20388F80030C1E7237803F0040000F0A5
:104C7000FF01B0B9614A43F00403137098F80020B3
:104C800002F128032B44D87810B104202A3240E7DF
:104C9000CBF800305B78083202EBC302584B1A7035
:104CA000A4E704200121521B33E70AF0DAF84FF69B
:104CB000FF73984240F07E8498F800302833E85C17
:104CC00002F016F998F800302833EA18E85C5178B9
:104CD000FEF704FF012801BF0023494A3B801370FF
:104CE0003B88002B00F0668400F060BCFFF748FDB5
:104CF000EB8D85F8069053B96E8D002E00F05A8426
:104D0000404B414D2B603B4BB3F828800BE00AF041
:104D1000AEF84FF6FF73984240F04C84ECE7238ADC
:104D200033B920342C602C68384B9C42F7D315E003
:104D30009E42F6D1638A0BB19845F2D123682BB914
:104D400063681BB9A3680BB9E3685BB130482146BF
:104D5000102205F00FFA0028E3D103E0012004211E
:104D60000022D6E63B882B49303B3B8000230B607A
:104D700029490220294A08702949CAF800200A60F6
:104D8000284A138002F044FA264B1A88002A00F0C1
:104D9000118402F13003174C9BB23B80283B19125F
:104DA0006371194B08321B6852BA2171197DA285B3
:104DB0000022E2851A8AE17122855A8A11216285D0
:104DC000A17104F118050FCB85E80F0004F108006C
:104DD0002946FFF7F3F8144B04F13C021A600AF07D
:104DE00046F8C04380B208B1E085D9E34FF6FF73BF
:104DF000E385D5E34028002058280020461F0020E6
:104E0000451F0020642F00205C2D0020A4300020CE
:104E100048280020642D0020542D002070280020F8
:104E200030280020602F0020602D0020582D002009
:104E3000FFF7A6FC85F806900AF016F84FF6FF7308
:104E40009842AE4C40F0B683B4F82AB0BBF1000FE4
:104E500000F0B083238D002B00F0AC83A84EB44645
:104E600096F82590B9F1000F11D0328A5A450ED12B
:104E7000728A9A420BD1A348314610228DE808105D
:104E800005F078F99DE80810002800F0F5809E4AAA
:104E900030369642E4D195F8352002F03F02022ADE
:104EA00008D10022994931F81210594550D00132E9
:104EB000082AF7D195F83520904B520700F17A83F4
:104EC000142283F835203C223A80502283F8342083
:104ED00093F8332093F8314093F82F0083F82F2074
:104EE00093F8322093F82E1093F8306083F82E2038
:104EF000013093F82D2083F82D4093F82C40C0B258
:104F000083F8321083F8312083F82C6083F8304026
:104F100083F8330060B90131C9B283F8321039B96E
:104F20000132D2B283F8312012B9621C83F83020EA
:104F30002B8D6A8D734C2A856B8504F1100594E8DE
:104F40000F0085E80F0020462946FFF737F812E3E7
:104F5000002421466A4A92F8250018B9302404FB3F
:104F600001C413E0072809D13CB192F8266094F8F7
:104F70002600864288BF144600E0144601310A2903
:104F800002F13002E7D1002C00F01483604A638202
:104F900014605C4B032284F8262084F82420042229
:104FA00084F823200FCB84E80F005A4B01201A7895
:104FB000002622765A7884F8250062769A78DB7883
:104FC000A276E37695F82C30A083237595F82D30E2
:104FD00084F82260637595F82E3084F82760A375F5
:104FE00095F82F30A4F810B0E375FFF785FB95F81E
:104FF000343003F0F002502A24D91A093346053A16
:105000009200E91891F83C00E0B1012801D1013388
:1050100016E002280FD191F83D0004280BD191F839
:105020003E2091F83F3043EA0223402B28BF402323
:10503000E383238406E0E91891F83D1011B10B4495
:105040009342DEDB10222D4B83F835202B4B93F857
:10505000352042F0020283F83520022283F83C20FA
:10506000042283F83D20002283F83E20402283F86A
:105070003F203A80602242E2254B95F835101E60B1
:10508000254B11F0040F344618709B4603D086F868
:1050900025002022E1E13B8809F00F09A3F1280255
:1050A000164BB9F1020F93F834304FEA1313A2EB09
:1050B00083039BB23B8003D101F03F02122A05E03B
:1050C000B9F1010F03D101F03F02022A26D00BB93A
:1050D0008B0723D0AA8DB38A9A4204D1074BDA8D6D
:1050E000F38A9A421AD0880740F10282B9F1010F7F
:1050F000A8D0B9F1020F40F0FB81A7E740280020BB
:10510000682D002048280020482F0020502F002024
:10511000642D0020471F0020542D0020C90654D5BF
:10512000B18B002951D006F11800FFF7BBFAB24B42
:1051300095F8301093F800E0B04A8E4545D192F8CA
:10514000311093F801C08C453FD192F83200997824
:1051500081423AD192F83320DB78934235D1F3760D
:1051600096F8273086F818E086F819C0B1761BBB90
:1051700096F8243096F8261096F82200591AA1EBDA
:10518000D001C9B25FFA81FE1EF0800F96F823307D
:10519000084418BF4942A3EB930318BF5FFA81FE8E
:1051A00003EB0E02C0B2D3B286F8233003EBD00378
:1051B00086F8220086F82430914B01221A7096F866
:1051C000243086F826300023B38396F82510DFF8C4
:1051D000309201F00F03013B072B00F2EB81DFE877
:1051E00013F0080025008300400162017C01870163
:1051F000320199F80020824BD2070FD5032286F89E
:105200002520388840221A700022B283002800F03E
:10521000C48042221A70FFF76FFABEE095F835306D
:1052200003F03F03022B40F0C5810BE799F80030F3
:10523000DB074ED595F8353003F03F03122B48D1EC
:105240006E4B93F8343003F0F002502A24D91B0936
:10525000053B9B0000202A1892F83C10E1B101297F
:1052600001D1013016E002290FD192F83D10042936
:105270000BD192F83E1092F83F3043EA0123402BC5
:1052800028BF4023F383338406E02A1892F83D2098
:1052900012B110449842DEDB032386F8253095F8DE
:1052A0002C300120337595F82D30737595F82E301C
:1052B000B37595F82F30F375FFF71EFA4223514A64
:1052C0008BF800300023B3833B8088F800301380D4
:1052D00066E020238BF8003001F09AFF4A4B002251
:1052E0001B6883F82520E5E595F83530D80725D5E6
:1052F000CA0623D4B38B002B40F05C813888013080
:1053000080B2FFF7F9F99BF8003043F010028BF8F8
:1053100000203A881AB13A4A43F01203137001F0A0
:1053200077FF0123B383082386F82530002386F80E
:1053300027301122314B83F83520DCE098060DD55B
:1053400095F83A2095F83B3043EA0223DAF800203A
:105350001A44CAF800203A88D31A3B80388848B1EA
:10536000CA0607D499F8003043F0020389F80030E8
:10537000FFF7C2F995F8362095F8373003EB022392
:10538000328C9BB2934202D8002B18BF1A4699F870
:105390000030F2839B0700F00D811A4B00221A8027
:1053A00001F036FF164B1A78164B02F0200000F081
:1053B000FF0128B100221A8084F825201422B9E7C1
:1053C00002F0100000F0FF0540B119800123A38313
:1053D000042384F8253084F82710AAE71988B1B18E
:1053E000D60748BFA583A28B82B9E28B914288BFC2
:1053F0001A801B88A3830AE034280020402800205C
:10540000542D0020602F0020642D00201A800023DE
:1054100084F827306D4B1B68CAF800306C4B1B8832
:105420002BB1A38B1BB13C333B80182207E0694BA7
:105430001B789D0740F1BE803C233B801022664BC9
:1054400083F8352059E099F80030DC0740F1B2804C
:10545000002386F825305F4B10221A7001F0D8FE29
:10546000A8E0388808B1FFF747F995F8353013F010
:1054700001030FD099F80030D80745BF072386F8FD
:1054800025300623002346BF86F82630B38386F8EE
:10549000253016E099F80020D1071BD5052286F8A3
:1054A0002520B38386E0388808B1FFF725F995F801
:1054B0003530DA070ED5072386F82530002386F825
:1054C00026300120FFF718F9102389F8003001F089
:1054D0009FFE0DE03B885BB96CE099F80030DB077C
:1054E00068D5072386F82530002386F8263061E04A
:1054F000102385F835303C233B80374B502283F80E
:105500003420237D344D85F83030637D05F1180655
:1055100085F83130A37D85F83230E37D85F833306E
:10552000237E85F82C30637E85F82D30A37E85F8A8
:105530002E30E37E85F82F30238A2B85638A6B8596
:1055400094E80F0086E80F0005F108003146FEF7E9
:1055500035FD94F8253003F0100303F0FF022BB162
:10556000002385F8373085F8363004E0402385F88D
:10557000362085F83730184C0623A371174B1B795A
:10558000E3713B88283B1A1263710023227184F86F
:105590003B3084F83A30238709F066FCC04320870B
:1055A0000D4B60221A7000225A705A80094B00225B
:1055B0001A7007E00A4A002313700A4A3B801370EE
:1055C000044A137003B0BDE8F08F00BF30280020FC
:1055D000602F0020542D002040280020C0260020ED
:1055E000451F0020461F002010B5044640B102F0C0
:1055F000E9FC044B2146BDE81040186803F094BB59
:1056000010BD00BF3405002008B503F071FD034B49
:1056100003491868BDE8084003F0CEBA34050020FD
:10562000E9552000F8B51E46174B05461746186881
:105630009DF81820079B03F0EDFA044608B32B46AB
:10564000054603F1100E2A4618685968083303C24C
:1056500073451546F7D1012E0CBF4FF4167100218A
:1056600004F114002774667409F075FA04F11C0043
:10567000002109F070FA002384F82430204602F05B
:10568000A1FC2046F8BD00BF34050020024B0146B6
:1056900018680AF0D3BA00BF3405002070B50C4D6D
:1056A0000646286803F09CFA044666B9002070BDDF
:1056B00020463146102204F05DFD38B121462868AD
:1056C0000AF084FA0446002CF2D1EFE7204670BDC0
:1056D00034050020024B014618680AF096BA00BF54
:1056E0003405002070B5054610200C4603F056FC2A
:1056F000084906460AF0D7FA58B9304629462246E4
:1057000003F094FC304629462246BDE8704002F082
:105710002FBC70BD8108210070B53D4D286803F095
:105720005FFA0446002872D0637C042B6AD8DFE855
:1057300003F01B0369313E0004F114063046FDF707
:105740004FFE00285ED02046FEF7B4FE48B103238A
:1057500063743046052109F0FEF9002384F82430F3
:1057600050E0022363744DE094F82430022B2AD8D1
:1057700004F11C063046FDF733FE002842D0254BCD
:10578000188800283ED194F824300146013384F86B
:1057900024302BE004F11400FDF722FE90B3042323
:1057A0000021637484F8241004F11C0028E094F8AC
:1057B0002430022B0BD92046FEF77CFE18B1037F64
:1057C0000BB9FEF755FE2046FFF70EFF1AE004F175
:1057D0001C063046FDF704FEA0B10E4B188888B9B0
:1057E000214694F82430013384F82430224600F016
:1057F0001FFA094B304619694FF47A73B1FBF3F184
:1058000009F0A9F9286821460AF0E0F989E770BD96
:10581000340500202C280020C026002050B1064B63
:105820001B6833B153F8022F02605A6842600120AE
:1058300070471846704700BF681100202DE9F04FEF
:10584000594C5A4DE2792B78FF2A03F12C0C85B084
:105850000CEB04091CF80470DFF86C8140F09D80AB
:10586000234493F82930002B40F0978099F80430B6
:10587000FF2B00F0928007F0400303F0FF0201923B
:105880001BB1237EFF2B00F088804949494E142329
:105890000022B8F800B00B7032600CEB030EDE454E
:1058A00011DA04EB0E0A9AF8010010B932600B709D
:1058B00073E014F80EE003EBC003DBB2BEF1020F9D
:1058C00008BF5246E9E709F104000B703260FEF7A9
:1058D0006FFA394B186000285FD1287820443030A7
:1058E000FFF7DCFE354C2060002856D0FFF7CEFED7
:1058F0008246002851D02F4BD3F80090B9F1000F09
:1059000007D009F102005146082204F033FCC0B26E
:1059100000E04846236827F07F065A7CF6B2A2B919
:10592000B9F1000F39D002A8FFF778FF002834D072
:10593000504602A901220AF091F970B3019B53BBB2
:105940001E4B02221B685A7425E0B90609D418B907
:1059500023681B7CB3B91EE0012A1ED102225A74AF
:105960001BE0B9F1000FF3D00028F1D002A8FFF737
:1059700055FF90B1504602A901220AF06FF90028A4
:10598000E6D10AE03EB90E48FEF794FD0D4A1060DC
:1059900008B1FEF76DFD23681E740023A8F80030DF
:1059A0002B7005B0BDE8F08F40280020451F002077
:1059B0004C1F0020681100206C1100206411002091
:1059C00048280020601100202C2800202DE9FF47E6
:1059D0008B4C8C4FE379DFF85082FF2B40F008812D
:1059E0003B78E21892F83020FF2A00F0018123442E
:1059F00093F82930002B40F0FB80834E834D3360B9
:105A000014232B7038782A782C30B8F800300244F0
:105A10009A4258DAA1184878794B002800F0E880BB
:105A2000A25C012A45D11A8931607AB95A896AB9CA
:105A30009A895AB9DA894AB91A8A3AB95A8A2AB96C
:105A40009B8A1BB9E38A002B00F0D28002A8FFF7E3
:105A5000E5FE6F48FFF722FEDFF8D0910246C9F855
:105A6000000040B905230093019002A90223684871
:105A7000FFF7D8FD1DE0FFF709FE8246002800F081
:105A8000B780306851460230082204F073FB50B1F1
:105A9000504602A901220AF0E1F8002800F0A8808F
:105AA000D9F8003003E0D9F800305A7C0AB9022254
:105AB0005A743B782A782C33134423445B7802EBE6
:105AC000C3022A709EE720440430FEF771F9514B5F
:105AD0004B4D18609946002800F08A802B8973B9D5
